:020000040800F2
:1000000080340120F1020008D90B0008DB0B000846
:10001000DF0B0008E30B0008E70B000800000000FE
:10002000000000000000000000000000290200089D
:10003000EB0B0008000000007D020008052C000802
:100040000B0300080B0300080B0300080B03000858
:100050000B0300080B0300080B0300080B03000848
:100060000B0300080B0300080B0300080B03000838
:100070000B0300080B0300080B0300080B03000828
:100080000B0300080B0300080B0300080B03000818
:100090000B0300080B0300080B0300080B03000808
:1000A0000B0300080B0300080B0300080B030008F8
:1000B0002F0800080B0300080B0300080B030008BF
:1000C0000B0300080B0300080B0300080B030008D8
:1000D0000B0300080B0300080B0300080B030008C8
:1000E0000B0300080B0300080B0300080B030008B8
:1000F0000B0300080B0300080B0300080B030008A8
:100100000B0300080B0300080B0300080B03000897
:100110000B0300080B0300080B0300080B03000887
:100120000B0300080B0300080B0300080B03000877
:100130000B0300080B0300080B0300080B03000867
:100140000B0300080B0300080B0300080B03000857
:100150000B0300080B0300080B0300080B03000847
:100160000B0300080B0300080B0300080B03000837
:100170000B0300080B0300080B0300080B03000827
:100180000B0300080B03000800F002F800F03CF835
:100190000AA090E8000C82448344AAF10107DA45E2
:1001A00001D100F031F8AFF2090EBAE80F0013F0F8
:1001B000010F18BFFB1A43F001031847944A0000CF
:1001C000B44A0000103A24BF78C878C1FAD8520760
:1001D00024BF30C830C144BF04680C6070470000C1
:1001E0000023002400250026103A28BF78C1FBD840
:1001F000520728BF30C148BF0B6070471FB504F0DD
:1002000002FD1FBD10B510BD04F0C3FC1146FFF781
:10021000F5FF00F0C0FA04F0E1FC03B4FFF7F2FFD1
:1002200003BC04F0E9FC0000294B19680868B0E839
:10023000F04F80F30988BFF36F8F4FF0000080F319
:10024000118870470000000006480068006880F3CD
:10025000088862B661B6BFF34F8FBFF36F8F00DFC0
:1002600000BF00BF08ED00E0DFF80C00016841F4BA
:1002700070010160704700BF88ED00E0EFF3098076
:10028000BFF36F8F124B1A681EF0100F08BF20EDDE
:10029000108A20E9F04F106008B44FF0500080F34E
:1002A000118801F000FD4FF0000080F3118808BCB8
:1002B00019680868B0E8F04F1EF0100F08BFB0ECE6
:1002C000108A80F30988BFF36F8F704700BF00BFAB
:1002D00068000020EFF311804FF0500181F3118886
:1002E000704780F311887047EFF305807047000076
:1002F0000948804709480047FEE7FEE7FEE7FEE7BA
:10030000FEE7FEE7FEE7FEE7FEE7FEE704480549F5
:10031000054A064B704700000D04000889010008DB
:10032000802E012080340120803001208030012087
:100330000CB50020019000907648006840F48030B1
:100340007449086000BF7348006800F400300090F2
:100350000198401C0190009818B90198B0F5A04F81
:10036000F1D16C48006800F4003010B10120009019
:1003700001E0002000900098012846D165484030F7
:10038000006840F08050634940310860624800686E
:1003900040F44040604908605E48083000685D49AC
:1003A000083108600846006840F4004008600846CC
:1003B000006840F4A05008605848091F0860081FF2
:1003C000006840F08070091F086000BF5148006855
:1003D00000F000700028F9D040F205705049086024
:1003E0004C480830006820F003004A490831086092
:1003F0000846006840F00200086000BF4548083029
:10040000006800F00C000828F8D10CBD10B5454874
:10041000006840F47000434908603E48006840F0BE
:1004200001003C49086000203A4908310860394819
:1004300000683D490840374908603C48091D08608C
:10044000081F006820F48020091F0860002031493F
:100450000C310860FFF76CFF4FF0006031498039C4
:10046000086010BD70B50020002202230024022184
:10047000284D08352D6805F00C0020B1042806D061
:10048000082834D107E02A4D2A4E356033E02A4D42
:10049000284E35602FE01F4D2D1D2D68C5F380546B
:1004A0001C4D2D1D2D6805F03F0154B1224DB5FBAB
:1004B000F1F5184E361D3668C6F3881605FB06F2B0
:1004C00009E01B4DB5FBF1F5124E361D3668C6F33B
:1004D000881605FB06F20F4D2D1D2D68C5F301454D
:1004E0006D1C6B00B2FBF3F5124E356003E0104D4E
:1004F000104E356000BF00BF064D08352D68C5F3AE
:1005000003150E4E705D0B4D2D68C540094E3560CC
:1005100070BD0000003802400070004008544007E1
:10052000003C024088ED00E0FFFFF6FE10300024A2
:100530000024F4000000002000127A0004000020D3
:10054000DB480068012803D10220D94908600DE08A
:10055000D7480068022803D10020D549086005E08B
:10056000D348006810B90120D1490860704700B530
:10057000D048006810B9FFF7E3FF00BF00BF00BD1F
:1005800010B504464FF4FA7001F0DAFACA48006870
:1005900008B9FFF7ECFF002001F0F0F810BD70473C
:1005A00010B5002000F033FA10BD70B50546C34801
:1005B000046840F6B83001F0C3FAC0480068C0498A
:1005C0000968884208D2BD480068844204D1FFF718
:1005D000E7FF0120BB490860002001F0CFF870BDA3
:1005E00010B504464FF4FA7001F0AAFAB248006858
:1005F000401EB1490860002001F0C0F810BD7047EE
:1006000070471FB558E0B0480068002833D000207C
:10061000AD490860FFF7F4FFA9480068D0B101F0C8
:10062000EAFCA0F5FA70A6490968884212D2FFF7E1
:10063000E6FFA1480068401C9F4908600020009028
:100640000190029003468022A0A10390AFF26F00B8
:1006500000F0EFFF01F0CFFC994908600020009006
:100660000190029003468022A6A10390AFF2C5003C
:1006700000F0DFFF20E0AA480068E8B10020A849A8
:100680000860FFF78CFF01F0B6FC8C4908608A48CF
:10069000006870B98B48006858B90020009001903C
:1006A0000290034680229FA10390AFF22B1000F02E
:1006B000C0FF002083490860A5E726E07C48006869
:1006C00048B9012000F09BF9032000F090F90220C6
:1006D00000F095F919E076480068012808D100F08B
:1006E0008EF9032000F08BF9022000F080F90CE075
:1006F0006F480068022808D1012000F078F9032033
:1007000000F07DF9022000F07AF9D7E710B5012159
:10071000084602F0B6FF49F64040894908800020AB
:100720004880142048600020088188724FF0804083
:1007300003F095F90121880703F01AFA0122114606
:10074000900703F02DFE00207E49086010BD0024B4
:10075000002500BF01217C4802F00EFD04461CB1BB
:100760002DB9FFF7D3FF02E00DB1FFF7CFFF25460C
:10077000F0E700BFFEE708B51C208DF80000002060
:100780008DF8010001208DF802008DF80300684605
:1007900002F017FB08BD1FB54FF4407002F00CFBD0
:1007A000012000F005F9002000F002F9032000F01C
:1007B000FFF8022000F0FCF80021084600F034F9B0
:1007C000FFF7D9FF0020009001900290034680229D
:1007D0005EA10390AFF2650000F02BFF00200090B7
:1007E00001900290034680225BA10390AFF2A1002A
:1007F00000F01FFF0020009001900290034680222D
:100800005BA10390AFF24D1000F013FF00200090A9
:1008100001900290034680225DA10390AFF21D205B
:1008200000F007FF01F0B9FB002004B010BD10B5C7
:100830000121880703F0CBFD002838D0012188076B
:1008400003F0D6FD0121404802F096FC0446BCB1FD
:100850003C48006801280CD154480068012801D1A7
:100860001949086002203749086000204F49086094
:100870001DE034480068D0B901203249086016E014
:100880003048006801280CD14848006810B90120A0
:100890002349086002202B49086001204349086071
:1008A00005E02848006810B901202649086010BDFD
:1008B00020000020140000202C0000203800002020
:1008C000340000203000002024000020446F7562B6
:1008D0006C65205072657373202854656D706F725B
:1008E0006172696C79292044697361626C65732057
:1008F00053696E676C652050726573732054617321
:100900006B00000057616974204966204C6F6E6768
:100910002050726573736564205461736B0000002E
:1009200028000020576169742049662053696E676A
:100930006C652050726573736564205461736B003D
:10094000E4000020180000200000024049646C65AB
:10095000205461736B000000427574746F6E204CFC
:10096000697374656E6572205461736B00000000DA
:100970004C4544732053686F772053656C656374EE
:10098000656420436F66666565205461736B000083
:10099000427574746F6E204576656E742047656E7F
:1009A000657261746F72205461736B001C000020CB
:1009B0001CB50446724951F82400012102F018FECA
:1009C000704830F81400009001208DF804000020D9
:1009D0008DF8060001208DF8070002208DF8050033
:1009E000694951F82400694602F064FB1CBD654961
:1009F00031F81010644A52F8202011837047614981
:100A000031F81010604A52F82020518370475E4937
:100A100051F8201049695B4A32F8102051405A4A77
:100A200052F820205161704730B585B004460D461C
:100A3000564951F82400012102F0DAFD0121880312
:100A400002F030FE00208DF810008DF813005048A1
:100A500030F8140003904F4951F8240003A902F024
:100A600029FB012D24D14C4A115D4C4A105D02F046
:100A700010FF4B4830F81400019000208DF808005A
:100A800008208DF8090001208DF80A0001A802F065
:100A900011FA4448005D8DF800000F208DF8010028
:100AA0008DF8020001208DF80300684602F089F9F4
:100AB00005B030BD10B50446354A32F81410354A39
:100AC00052F8240002F058FB10BD7CB504460D46D8
:100AD000354951F82410354A52F8242041EA0200E1
:100AE000012102F085FD2CB9314951F82400012182
:100AF00002F0C7FD2F4B13F814202F4B33F81410BE
:100B00002E4B53F8240002F060FB2D4B13F81420F9
:100B10002C4B33F814102C4B53F8240002F055FBE7
:100B200000208DF8060001208DF8070002208DF8C6
:100B30000400264830F81400009002208DF80500CB
:100B40001E4951F82400694602F0B4FA02208DF8DB
:100B500004001F4830F8140000901B4951F824008D
:100B6000694602F0A7FA1B4951F82400294603F010
:100B700082FD184951F82400012103F004FE7CBDD8
:100B8000184C0008104C0008440000202C4C0008B1
:100B9000284C000854000020334C0008324C000858
:100BA000304C0008344C00083C4C0008404C000815
:100BB000384C00084C4C0008484C000860000020ED
:100BC0004E4C00084A4C000864000020444C0008C9
:100BD000464C00085C000020704700BFFEE700BFE5
:100BE000FEE700BFFEE700BFFEE7704700F1080127
:100BF00041604FF0FF31816000F10801C160016187
:100C000000210160704700210161704742684A601D
:100C100093688B60936859609160086103685B1CFE
:100C20000360704710B502460B685C1C0CB9106974
:100C300007E002F1080000E04068446824689C4234
:100C4000FAD944684C604C68A160886041600A61D0
:100C50001468641C146010BD01460A69D1E90130B2
:100C60009860D1E9010358605068884201D18868D2
:100C70005060002008611068401E106010687047C6
:100C800070B505460E462C461CB9FFF723FB00BF86
:100C9000FEE701F084FFD4E90F12206801FB020097
:100CA00060600020A0632068A060E06B401E226CA2
:100CB000216800FB0210E0604FF0FF306064A06428
:100CC00076B9206908B9012000E0002080B904F15C
:100CD000100001F007FB01280AD101F056FF07E0E0
:100CE00004F11000FFF782FF04F12400FFF77EFFFC
:100CF00001F074FF012070BD2DE9F04705460E4656
:100D000017464FF00009DDB1542001F0D6FF04462C
:100D1000B4B105FB06F000F10108404601F0CDFF3B
:100D20002060206848B1E563266401212046FFF772
:100D3000A7FF84F85070A14602E0204602F00FF8A9
:100D4000B9F1000F03D1FFF7C5FA00BFFEE748462F
:100D5000BDE8F08710B5044601F021FF11E0606A9C
:100D600008B9012000E0002038B904F1240001F0A6
:100D7000B9FA18B101F072FB00E005E0A06C401E6A
:100D8000A064A06C0028EADC00BF4FF0FF30A06434
:100D900001F024FF01F003FF11E0206908B90120F0
:100DA00000E0002050B904F1100001F09BFA08B1F6
:100DB00001F054FB606C401E606400E002E0606C77
:100DC0000028EADC00BF4FF0FF30606401F006FF4E
:100DD00010BD70B5054601F0E2FEA86BE96B8842D4
:100DE00001D1012400E0002401F0F8FE204670BD8E
:100DF0002DE9F04104460E4615460027206C40B907
:100E0000206878BB606801F099FB074600206060AD
:100E100028E07DB93146226CA06803F0EFFD216C1B
:100E2000A0680844A060D4E9011088421AD3206861
:100E3000A06017E03146226CE06803F0DFFD216C12
:100E4000E068401AE0602168E068884203D2216CC3
:100E50006068401AE060022D04D1A06B10B1A06B55
:100E6000401EA063A06B401CA0633846BDE8F08123
:100E70002DE9FF4383B0064688461D464FF0000922
:100E800034461CB9FFF726FA00BFFEE7B8F1000FA1
:100E900001D1206C08B9012000E0002018B9FFF74B
:100EA00019FA00BFFEE7022D02D1E06B012801D143
:100EB000012000E0002018B9FFF70CFA00BFFEE7A0
:100EC00001F0DEFA08B9059808B9012000E0002019
:100ED00018B9FFF7FFF900BFFEE700BF01F05FFEA2
:100EE000A06BE16B884201D3022D1DD12A464146F9
:100EF0002046FFF77DFF0746606A08B9012000E041
:100F0000002040B904F1240001F0ECF9012805D1DA
:100F100001F03BFE02E00FB101F037FE01F05EFE92
:100F2000012007B0BDE8F083059818B901F056FE1E
:100F30000020F6E7B9F1000F04D101A801F04AFA48
:100F40004FF0010901F04AFE00F09CFD01F027FE80
:100F5000606C401C08B900206064A06C401C08B99B
:100F60000020A06401F03AFE05A901A801F040FAB2
:100F7000C0B92046FFF72DFF70B104F110000599AC
:100F800001F0F7F82046FFF7E5FE00F0CFFC00285F
:100F9000A4D101F0FAFDA1E72046FFF7DBFE00F047
:100FA000C5FC9BE72046FFF7D5FE00F0BFFC002004
:100FB000B7E770B50546542001F07FFE0446E4B162
:100FC000002060602060A060E060A0630120E0631A
:100FD00000202064401E6064A06484F8505004F136
:100FE0001000FFF703FE04F12400FFF7FFFD0023CC
:100FF0001A4619462046FFF73BFF1CB9FFF76AF96E
:1010000000BFFEE7204670BD70B5064634461CB9E9
:10101000FFF760F900BFFEE701F02FFA6168884230
:101020000CD1E068401EE060E06828B900231A4651
:1010300019462046FFF71CFF012500E00025284641
:1010400070BD70B5054601F0AAFDA86B08B9012472
:1010500000E0002401F0C2FD204670BD70B50446DA
:101060000D46206C70B1216CE0680844E060616856
:10107000E068884201D32068E0602846226CE1687D
:1010800003F0BCFC70BD2DE9FF4383B005460E465E
:101090001F464FF000092C461CB9FFF71BF900BF93
:1010A000FEE70EB9206C08B9012000E0002018B955
:1010B000FFF710F900BFFEE701F0E2F908B9059863
:1010C00008B9012000E0002018B9FFF703F900BFBC
:1010D000FEE700BF01F063FDA06B90B3D4F80C8075
:1010E00031462046FFF7BAFFB7B9A06B401EA06398
:1010F000206810B901F072FA6060206908B9012017
:1011000000E00020B8B904F1100001F0EBF801286C
:1011100011D101F03AFD0EE0C4F80C80606A08B904
:10112000012000E0002030B904F1240001F0DAF8D9
:1011300008B101F02AFD01F051FD012007B0BDE822
:10114000F083FFE7059818B901F048FD0020F5E7A6
:10115000B9F1000F04D101A801F03CF94FF00109E9
:1011600001F03CFD00F08EFC01F019FD606C401CAC
:1011700008B900206064A06C401C08B90020A0647D
:1011800001F02CFD05A901A801F032F908BB2046A9
:10119000FFF757FFB8B1206830B901F000FD606873
:1011A00001F07AF901F01AFD04F12400059900F02C
:1011B000E0FF2046FFF7CEFD00F0B8FB002889D104
:1011C00001F0E3FC86E72046FFF7C4FD00F0AEFB2C
:1011D00080E72046FFF7BEFD00F0A8FB0020ADE74A
:1011E0002DE9F04106460F4634461CB9FFF772F868
:1011F00000BFFEE701F041F96168884204D1E06870
:10120000401CE06001250BE000233A4619462046C9
:10121000FFF739FF0546012D02D1E068401CE06070
:101220002846BDE8F08170B505460E460DB1012097
:1012300000E0002018B9FFF74DF800BFFEE7AE420E
:1012400001D8012000E0002018B9FFF743F800BFE3
:10125000FEE7022200212846FFF74EFD044604B1B6
:10126000A6631CB9FFF736F800BFFEE7204670BD45
:101270002DE9F0470746894615461E463C461CB9EF
:10128000FFF728F800BFFEE7B9F1000F01D1206C8D
:1012900008B9012000E0002018B9FFF71BF800BFD3
:1012A000FEE7022E02D1E06B012801D1012000E00F
:1012B000002018B9FFF70EF800BFFEE701F0B1FCFF
:1012C000FFF708F88246A06BE16B884201D3022E3B
:1012D00020D1324649462046FFF78AFD10B10DB1B4
:1012E00001202860A06C401C70B9606A08B9012018
:1012F00000E0002058B904F1240000F0F3FF30B101
:101300002DB10120286002E0A06C401CA0644FF0C9
:10131000010801E04FF000085046FEF7E2FF4046AA
:10132000BDE8F0872DE9F0470546884616462C466D
:101330001CB9FEF7CFFF00BFFEE7B8F1000F01D1E7
:10134000206C08B9012000E0002018B9FEF7C2FFA8
:1013500000BFFEE701F065FCFEF7BCFF8146A06B15
:10136000E8B141462046FFF779FEA06B401EA0631E
:10137000606C401C70B9206908B9012000E00020B1
:1013800058B904F1100000F0ADFF30B12EB10120CA
:10139000306002E0606C401C6064012700E00027C0
:1013A0004846FEF79EFF3846BDE8F0872DE9F04736
:1013B00005460F462C461CB9FEF78CFF00BFFEE722
:1013C0000FB9206C08B9012000E0002018B9FEF721
:1013D00081FF00BFFEE701F024FCFEF77BFF8146A2
:1013E000A06B48B1D4F80C8039462046FFF736FE92
:1013F000C4F80C80012600E000264846FEF771FF85
:101400003046BDE8F08770B504461CB9FEF762FFB0
:1014100000BFFEE701F0C3FBA56B01F0DFFB284630
:1014200070BD70B5044625461DB9FEF753FF00BFD9
:10143000FEE701F0B4FBD5E90E10461A01F0CEFB31
:10144000304670BD70B504461CB9FEF743FF00BFBF
:10145000FEE7A56B284670BD014600200BE03D4A23
:1014600002EBC00252688A4204D10022394B43F891
:10147000302002E0401C0828F1D300BF704770B54F
:1014800005462C461CB9FEF725FF00BFFEE72046A7
:10149000FFF7E2FF206810B1206801F060FC2046F1
:1014A00001F05DFC70BD0146C86C7047C1647047B7
:1014B000014691F85000704770B505461DB9FEF71A
:1014C00009FF00BFFEE7A86B08B9012400E0002473
:1014D000204670BD70B504461CB9FEF7FBFE00BF88
:1014E000FEE7A06BE16B884201D1012500E00025F9
:1014F000284670BD024600200BE0164B53F83030F2
:1015000033B9144B43F8301003EBC0035A6002E0C8
:10151000401C0828F1D300BF704770B505460E4641
:101520002C4601F03CFB606C401C08B90020606454
:10153000A06C401C08B90020A06401F04FFBA06B18
:1015400020B9314604F1240000F0A6FE2046FFF742
:1015500001FC70BDF000002010B5002407E004EB92
:101560008401F74A02EB8100FFF740FB641C052C65
:10157000F5D3F448FFF73AFBF348FFF737FBF3489E
:10158000FFF734FBF248FFF731FBF248FFF72EFB81
:10159000EC48F1490860EC48F049086010BD2DE9BD
:1015A000F04704460F4615469946DDF82080002690
:1015B00007E0B95D04F134008155B85D00B902E07F
:1015C000761C0A2EF5D300BF00213D200155052DC4
:1015D00000D30425E562A5640020E064201DFFF728
:1015E00012FB04F11800FFF70EFB2461C5F10500A2
:1015F000A0616462BDE8F08770B505460E465020D4
:1016000001F05BFB044694B11EB9A80001F055FB44
:1016100000E030462063206B20B9204601F09FFB9C
:10162000002404E0A900A522206B03F02CFA204638
:1016300070BD2DE9FF4F81B0804616469A46DDE920
:101640000E5BB8F1000F03D1FEF744FE00BFFEE7CA
:10165000052D01D2012000E0002018B9FEF73AFE66
:1016600000BFFEE730461099FFF7C6FF0446002C86
:101670005DD0701E216B01EB800929F0070909F08C
:10168000070008B9012000E0002018B9FEF722FE8B
:1016900000BFFEE700962A462046119B0299FFF7FD
:1016A0007EFF52464146484601F0F4F92060BBF106
:1016B000000F01D0CBF8004001F071FAA848006893
:1016C000401CA7490860A748006840B9A5480460C5
:1016D0000846006801280CD1FFF73EFF09E0A24848
:1016E000006830B99F480068C06AA84201D89D4888
:1016F00004609E480068401C9C49086008460068D9
:10170000206494F82C100120884099490968084306
:1017100097490860E16A01EB8101894A02EB810087
:10172000211DFFF773FA012701F058FA01E04FF08D
:10173000FF37012F09D18C48006830B18948006813
:10174000C06AA84201D201F020FA384605B0BDE8CF
:10175000F08F81490968096809B9012100E0002179
:1017600021B14FF0FF31834A116006E07A490968E0
:10177000C968C8687F4A41681160704770B50546FE
:1017800001F00DFA15B97748006800E028460446D4
:10179000201DFFF761FA78B9E06A00EB8000684924
:1017A00051F8200040B994F82C100120884070496D
:1017B000096881436E480160A06A18B104F11800FD
:1017C000FFF74AFA211D6248FFF720FA6A480068CD
:1017D000401C6949086065480068401C634908600E
:1017E00001F0FCF960480068B8B15E4800688442C6
:1017F0000DD16248006808B9012000E0002018B946
:10180000FEF768FD00BFFEE701F0BFF905E001F05B
:10181000C6F9FFF79EFF01F0E1F970BD2DE9F04137
:101820004FF0000855480068002872D154480068FD
:10183000401C5349086008460668DEB946480068FF
:10184000006808B9012000E0002018B9FEF742FD49
:1018500000BFFEE740480768404800683E4908600E
:101860003E48076047480068401C46490860FFF74B
:1018700070FF00BF3F48006886423CD300BF364837
:101880000068006808B9012000E0002020B14FF096
:10189000FF30384908602DE02F480068C068C468F0
:1018A0006568AE4202D23348056023E0201DFFF791
:1018B000D3F9A06A18B104F11800FFF7CDF994F834
:1018C0002C10012088402A490968084328490860EB
:1018D000E16A01EB81011A4A02EB8100211DFFF749
:1018E00095F92049E06A0968C96A8842C7D34FF070
:1018F0000108C4E700BF1B480068C06A00EB800015
:101900000F4951F82000012808D94FF0010805E0DF
:10191000FFE71D480068401C1B4908601B48006821
:1019200008B14FF001084046BDE8F08170B50025D0
:101930001248006818B9FEF7CDFC00BFFEE727E0AB
:101940003001002094010020A8010020BC010020EB
:10195000D0010020E40100206C0000207000002075
:1019600078000020680000208400002094000020FF
:101970008000002098000020740000209C000020BF
:101980007C00002090000020880000208C000020B7
:1019900001F005F9F9480068401EF849086008465A
:1019A000006800284BD1F6480068002847D024E0A2
:1019B000F448C068C46804F11800FFF74DF9201D11
:1019C000FFF74AF994F82C1001208840EE49096885
:1019D0000843ED490860E16A01EB8101EB4A02EB43
:1019E0008100211DFFF712F9E949E06A0968C96A17
:1019F000884202D30120E7490860E248006808B93C
:101A0000012000E000200028D2D0E348006878B12F
:101A10000AE0FFF703FF10B10120DE490860DE484D
:101A20000068401EDC490860DB4800680028F0D1EF
:101A3000D8480068012802D1012501F0A6F801F07C
:101A4000CDF8284670BD10B50446D1480068446002
:101A5000D2480068844207D2CD480168091DD048A9
:101A60000068FFF7DFF80CE0C9480168091DCD48A0
:101A70000068FFF7D7F8CC480068844201D2CA4812
:101A8000046010BDBD480068401CBC490860704738
:101A90002DE9F04704460E464FF000091CB9FEF749
:101AA00019FC00BFFEE70EB1012000E0002018B9CC
:101AB000FEF710FC00BFFEE7B048006808B901203F
:101AC00000E0002018B9FEF705FC00BFFEE7FFF7B5
:101AD000D9FFB248D0F800802068851920684045B9
:101AE00007D92068A8420BD9454509D94FF001090B
:101AF00006E02068A84201D8454501D94FF0010908
:101B00002560B9F1000F13D0A1480068001DFFF750
:101B1000A3F850B99E48006890F82C100120884026
:101B2000994909688143984801602846FFF78BFF6F
:101B3000FFF7FCFE07460FB901F027F8BDE8F08774
:101B400070B50446002634B38C48006808B90120FB
:101B500000E0002018B9FEF7BDFB00BFFEE7FFF76D
:101B600091FF8E480068051989480068001DFFF73D
:101B700073F850B98648006890F82C10012088400E
:101B8000814909688143804801602846FFF75BFF6F
:101B9000FFF7CCFE06460EB900F0F7FF70BD70B53A
:101BA000044600F0FCFF14B97948006800E02046C4
:101BB0000646F56A01F012F8284670BD2DE9F04797
:101BC00080460D464FF00009052D01D2012000E0AE
:101BD000002018B9FEF77EFB00BFFEE7052D00D3FD
:101BE000042500F0DCFFB8F1000F02D1684800685E
:101BF00000E040460446A66CAE4250D0B5420BD938
:101C00006348006884420DD061480068C06AA842F9
:101C100008D84FF0010905E05D480068844201D111
:101C20004FF00109E76AE16AA06C884200D1E562E1
:101C3000A564A06900F0004010B9C5F10500A061DD
:101C400007EB8701514A02EB81016069884201D1AB
:101C5000012000E00020E0B1201DFEF7FDFF30B9BB
:101C60000120B8404849096881434748016094F819
:101C70002C10012088404449096808434249086003
:101C8000E16A01EB8101414A02EB8100211DFEF76F
:101C9000BDFFB9F1010F01D100F077FF00BF00F0E7
:101CA0009DFFBDE8F08710B53448006818B10120E9
:101CB000384908602BE00020364908603248006847
:101CC000B0FA80F0C0F11F0404EB84002F4951F8F2
:101CD000200008B1012000E0002018B9FEF7FAFA50
:101CE00000BFFEE704EB8401284A02EB8100416853
:101CF0004968416000F1080142688A4202D14168A6
:101D0000496841604168C968214A116000BF10BD3F
:101D100070B5054600F043FF15B91D48006800E0A6
:101D200028460446201DFEF797FF78B9E06A00EBCD
:101D30008000164951F8200040B994F82C10012079
:101D400088401149096881430F480160A06A18B1B1
:101D500004F11800FEF780FF211D1448FEF756FF1E
:101D600000F03CFF0A480068844239D110480068FE
:101D700048B302480068E8B901201CE09C0000203C
:101D800078000020BC0100208000002030010020ED
:101D9000680000208C000020880000207C000020CB
:101DA000700000206C00002098000020E40100205A
:101DB00084000020002018B9FEF78CFA00BFFEE76F
:101DC00000F0E3FE15E0FE480068FE49096888421D
:101DD00003D10020FC4908600BE0FFF764FF08E036
:101DE000FA48006828B100F0DAFEFFF7B2FC00F014
:101DF000F5FE70BD70B5054600262C461DB9FEF7F0
:101E000069FA00BFFEE7EE496069884201D101200E
:101E100000E0002070B1EE49A06A884201D10120A3
:101E200000E0002030B9A06A08B9012000E00020DD
:101E300000B10126304670BD70B505462C461DB96F
:101E4000FEF748FA00BFFEE74CB3DF480068844263
:101E500025D000F0A4FE2046FFF7CCFF01281CD1BE
:101E6000201DFEF7F9FE94F82C1001208840D94976
:101E700009680843D7490860E16A01EB8101D64A45
:101E800002EB8100211DFEF7C1FECF49E06A09681F
:101E9000C96A884201D300F078FE00F09FFE70BD51
:101EA0002DE9F041054600262C461DB9FEF712FA31
:101EB00000BFFEE700F0B5FEFEF70CFA074620462D
:101EC000FFF798FF012824D1C4480068E0B9BE4953
:101ED000E06A0968C96A884200D30126201DFEF71E
:101EE000BBFE94F82C1001208840BA4909680843C9
:101EF000B8490860E16A01EB8101B74A02EB810051
:101F0000211DFEF783FE04E004F11801B048FEF73E
:101F10007DFE3846FEF7E5F93046BDE8F08110B5A4
:101F20000446206B00F01BFF204600F018FF10BD98
:101F300070B523E0FFF7A6FDA948006808B90120A5
:101F400000E000200546FFF7F1FCBDB900F027FED8
:101F5000A348C068C468201DFEF77EFE994800684B
:101F6000401E984908609F480068401E9D490860CF
:101F700000F034FE2046FFF7D2FF00BF994800680A
:101F80000028D7D170BD00BFFFF7D2FF924800688C
:101F90000128F9D900F0F9FDF6E71FB500200090FF
:101FA00001900290034682228FA103909048FFF790
:101FB00040FB0446012C02D100F0E7FC0446012C52
:101FC0000AD1FEF787F9012080490860002089497D
:101FD000086000F07DFD04E01CB9FEF77BF900BF4E
:101FE000FEE71FBD10B5FEF775F9002077490860C0
:101FF00000F0BCFD10BD10B500F0D1FD7D480468B7
:1020000000F0ECFD204610BD70B500F00AFEFEF7B2
:1020100061F90546774804682846FEF762F92046CC
:1020200070BD6848006870470246002101E0521CFC
:10203000491C1078A528FAD0890888B270472DE984
:10204000F04706460C4690460025206800284BD0F5
:10205000204641684968416000F1080142688A42AF
:1020600002D14168496841604168D1F80C9000BFD5
:10207000204641684968416000F1080142688A428F
:1020800002D14168496841604168CF6806EB45105C
:10209000076007F1340006EB45114860386C06EB29
:1020A0004511886006EB451080F80C80F86A06EB55
:1020B00045110861B8F1030F05D1B86A18B10220C3
:1020C00006EB45110873B86C06EB4511486100201A
:1020D00006EB45118861386BFFF7A6FF06EB45114B
:1020E00088836D1C4F45C3D12846BDE8F0872DE994
:1020F000F04105468846164600240527FFF7C2FC36
:102100003048006880452FD300BF7F1E07EB870251
:10211000314B03EB820105EB44100122FFF78FFFE7
:102120000444002FF1D105EB441002223249096822
:10213000FFF785FF044405EB441002222F4909688C
:10214000FFF77DFF044405EB441004222449FFF708
:1021500076FF044405EB441003221949FFF76FFF93
:1021600004440EB100203060FFF7E0FB2046BDE8DC
:10217000F08170B505460C461DB9FEF7ABF800BFFF
:10218000FEE71148016818312846FEF74BFD0E485E
:102190000068001DFEF760FD50B90B48006890F81C
:1021A0002C10012088400B490968814309480160CF
:1021B000601C20B904480168091D014820E022E0A4
:1021C000E401002078000020680000208400002046
:1021D000BC01002080000020300100209C00002075
:1021E000D00100207400002049444C45000000004C
:1021F000871F00087C0000206C0000207000002079
:10220000FEF704FD05E0FC48006806193046FFF7BC
:102210001AFC70BD2DE9F04105460E4614461DB965
:10222000FEF758F800BFFEE7F448006808B1012047
:1022300000E0002018B9FEF74DF800BFFEE746F0B9
:102240000040EF4909688861ED4801681831284667
:10225000FEF7DCFCEA480068001DFEF7FDFC50B903
:10226000E748006890F82C1001208840E54909688B
:102270008143E4480160601C30B9E1480168091DF0
:10228000E148FEF7C3FC05E0DB4800680719384663
:10229000FFF7D9FBBDE8F08170B504460D461CB9C7
:1022A000FEF718F800BFFEE7D54801681831204650
:1022B000FEF7ACFCD2480068001DFEF7CDFC50B91B
:1022C000CF48006890F82C1001208840CD4909685B
:1022D0008143CC480160C848006846193046FFF782
:1022E000B2FB70BD70B50646F068C4681CB9FDF756
:1022F000F1FF00BFFEE704F11800FEF7ADFCBF4898
:102300000068A8B9201DFEF7A7FC94F82C10012046
:102310008840BC4909680843BA490860E16A01EB92
:102320008101BA4A02EB8100211DFEF76FFC04E037
:1023300004F11801B648FEF769FCB149E06A096882
:10234000C96A884204D901250120B249086000E029
:102350000025284670BD2DE9F04105460F46A748E7
:10236000006808B1012000E0002018B9FDF7B2FFB5
:1023700000BFFEE747F000402860EC681CB9FDF79D
:10238000A9FF00BFFEE72846FEF766FC201DFEF70A
:1023900063FC94F82C10012088409A49096808438E
:1023A00098490860E16A01EB8101984A02EB8100DB
:1023B000211DFEF72BFC9249E06A0968C96A884230
:1023C00004D9012601209349086000E00026304628
:1023D000BDE8F08110B504461CB9FDF77BFF00BFD6
:1023E000FEE78D480068206083480068606010BD8B
:1023F0002DE9F04104460D461CB9FDF76BFF00BF07
:10240000FEE71DB9FDF766FF00BFFEE700F0C7FB62
:10241000794807682868401C08B9002619E07E49F9
:1024200020680968884204D06068B84201D8012653
:102430000FE06068381A2968884209D22868616804
:10244000791A401A28602046FFF7C4FF002600E0F2
:10245000012600F0C3FB3046BDE8F08101206D4944
:1024600008607047014611B10A46506C00E0002038
:10247000704708B102465164704761490868704767
:102480006649096809B9012005E05C49096809B98C
:10249000022000E00020704770B505462C46002D54
:1024A0004BD05749E06A0968C96A884245D2A06999
:1024B00000F0004028B952480068C06AC0F1050029
:1024C000A061E16A01EB8101504A02EB8101606980
:1024D000884201D1012000E0002050B3201DFEF70A
:1024E000BBFB78B9E06A00EB8000484951F8200056
:1024F00040B994F82C100120884042490968814372
:10250000404801603E480068C06AE06294F82C10C0
:10251000012088403B49096808433A490860E16A5C
:1025200001EB8101394A02EB8100211DFEF76EFBB0
:1025300003E033480068C06AE06270BD70B50546CC
:102540002C460026002D3BD0E06C18B9FDF7C2FEEA
:1025500000BFFEE7E06C401EE064A16CE06A8842C8
:102560002ED0E06C60BB201DFEF776FB78B9E06AE8
:1025700000EB8000254951F8200040B994F82C1058
:10258000012088401F49096881431E480160A06CF2
:10259000E062E06AC0F10500A06194F82C1001200F
:1025A000884018490968084316490860E16A01EB48
:1025B0008101164A02EB8100211DFEF727FB01264F
:1025C000304670BD0E49096888690D490968C96AB5
:1025D000C1F105010A4A1268916170470848006814
:1025E00030B10749096801F14C00C96C491C016010
:1025F00003480068704700007C0000209C00002019
:102600006800002080000020E4010020300100204C
:10261000BC0100208C0000209000002084000020DD
:102620002DE9F04104460D4616461F464FF00008BE
:1026300065602461B5420CD8F01BA169884202D3C1
:102640004FF0010811E0211DF9480068FEF7EAFA91
:102650000BE0BE4204D2BD4202D34FF0010804E0B9
:10266000211DF4480068FEF7DDFA4046BDE8F08120
:102670002DE9FE4305460C4616461F46DDF8288028
:102680004FF00009EC48006810B3009401960295E1
:10269000062C15DAFFF7F4FE022808D10023424683
:1026A0006946E5480068FEF7E3FB814610E0002339
:1026B0001A466946E0480068FEF7DAFB814607E003
:1026C00000233A466946DC480068FEF7D1FD8146A2
:1026D0004846BDE8FE832DE9F8432BE0D548006865
:1026E000C0680568D3480068C068C468201DFEF74C
:1026F000B3FA2046616A8847E06901281AD1A069C7
:102700004619AE4207D966602461211DC948006898
:10271000FEF788FA0EE0002003462A4601460090A4
:102720002046FFF7A5FF07461FB9FDF7D3FD00BF01
:10273000FEE700BFBF480068006808B9012000E05C
:1027400000200028CAD0BB48D0F80080B8480068F4
:10275000B8490860B648C0F80080BDE8F88370B595
:102760000446FFF748FC0546B4480068854204D299
:10277000FFF7B1FF0120206001E000202060AF489A
:102780000560284670BD70B586B05DE003980028EE
:102790005ADB059C606908B9012000E0002010B9EF
:1027A000201DFEF759FA02A8FFF7D9FF0546039846
:1027B0000A2847D2DFE800F00905072B2D4206085A
:1027C0002C2E00BF00BF00BF00BF0498A269811873
:1027D00003462A462046FFF723FF012816D120464C
:1027E000616A8847E069012810D1002000900498B0
:1027F000A1694218002319462046FFF739FF064613
:102800001EB9FDF767FD00BFFEE700BF1BE000BF7C
:1028100019E000BF0498A061A06908B1012000E0A0
:10282000002018B9FDF756FD00BFFEE7A069411969
:102830002B462A462046FFF7F3FE04E0204600F030
:102840008EFA00E000BF00BF00231A4603A97A48B1
:102850000068FEF718FC002898D106B070BDF8B5E6
:1028600005460F4673480068C068C468201DFEF71F
:10287000F3F9E069012817D1A06941192B463A46BE
:102880002046FFF7CDFE01280ED1002003462A4640
:10289000014600902046FFF7EBFE06461EB9FDF705
:1028A00019FD00BFFEE700BF2046616A8847F8BDFA
:1028B000F8B504460E46FFF7E5F86846FFF74FFF08
:1028C00005460098A0B946B9AC4206D8FFF72EF8E5
:1028D00029462046FFF7C3FF0CE0611B56480068FD
:1028E000FEF71BFEFFF722F820B900F04EF901E0D9
:1028F000FFF71CF8F8BD01464E4A126812680AB983
:10290000012200E000220A600A6822B9494A1268DE
:10291000D268106800E00020704708B500BF684624
:10292000FFF7E9FF044620460099FFF7C1FFFFF7D4
:102930002AFFF4E710B500F032F93F48006808BB01
:102940003F48FEF753F93F48FEF750F93C483949F4
:1029500008603C483649086000220C210A20FEF736
:10296000CBF9354908600846006818B9FDF7B2FC94
:1029700000BFFEE73048006820B133A12E48006850
:10298000FEF7B8FD00F02AF910BD1FB50024FFF7CF
:10299000D1FF2948006868B100200223CDE900304A
:1029A000029003464FF4827229A103902A48FEF751
:1029B00040FE04461CB9FDF78DFC00BFFEE7204633
:1029C00004B010BD2DE9F04706460D46174698465F
:1029D000DDF820900DB9002410E02C2000F06DF9F6
:1029E00004465CB1FFF7A6FF2660A561E761C4F865
:1029F0002080C4F82490201DFEF705F90DB10120B8
:102A000000E0002018B9FDF765FC00BFFEE7204696
:102A1000BDE8F08701460A461068704770B5044665
:102A2000264600F0BCF87069C0B9012017E000002C
:102A3000A4000020A0000020A8000020AC0000207E
:102A4000F80100200C020020546D725100000000BB
:102A5000546D7220537663001B290008002080F01B
:102A6000010500F0BBF8284670BD01460A46106A11
:102A7000704700007F480068401C08B9012000E052
:102A8000002018B9FDF726FC00BFFEE7FDF722FC89
:102A900000BFFEE7001F4FF080730360001F01605E
:102AA000001F754B036014380260001F6FF00203B3
:102AB000036020387047714800684FF47A71B0FBAA
:102AC000F1F0401E4FF0E021486107200861704797
:102AD0001CB56B48014609780191FF21024611702F
:102AE0000146097800919DF8001001F05001654AF7
:102AF00011700721644A116009E063490968491EA1
:102B0000614A11609DF800104906090E00919DF878
:102B1000001001F080018029EFD05B4909680902AB
:102B2000594A11601146098801F4E0611160544A64
:102B3000019911705548006840F4700053490860CD
:102B40000846006840F070400860FFF7B4FF0020BE
:102B500048490860FDF788FB4D48006840F0404058
:102B60004B490860FDF770FB00201CBD10B54148C3
:102B70000068B0F57A7F01D1012000E0002018B98B
:102B8000FDF7A8FB00BFFEE710BD4FF080503F49A6
:102B90001C390860BFF34F8FBFF36F8F704710B5BC
:102BA000FDF798FB33480068401C32490860BFF3CA
:102BB0004F8FBFF36F8F0846006801280DD133484F
:102BC0001C38006800F01F0008B9012000E0002058
:102BD00018B9FDF77FFB00BFFEE710BD10B5254813
:102BE000006818B9FDF776FB00BFFEE721480068D2
:102BF000401E204908600846006810B90020FDF713
:102C000070FB10BD10B5FDF765FBFEF707FE20B1A8
:102C10004FF080501D491C3908600020FDF761FB12
:102C200010BD70B5FDF760FB0546102D0FD305F103
:102C3000E02090F8F04313480078844201DB012043
:102C400000E0002018B9FDF745FB00BFFEE70F4884
:102C50001438006800F4E0600B490968884201D824
:102C6000012000E0002018B9FDF734FB00BFFEE7AB
:102C700070BD0000B0000020752A00080000002090
:102C800000E400E0B4000020B800002020ED00E0E7
:102C900034EF00E0424A22F00700424A106000226E
:102CA000404B5A60404A414B5A6000221A6001462C
:102CB0003D4A4A601A460A6070472DE9F0410446D1
:102CC0004FF00008FEF7DEFE3948006820B9FFF734
:102CD000E1FF01203649086044B1083404F00700E0
:102CE00020B104F00700C0F108000444002C31D0EA
:102CF0002D4884422ED22B4F3846056801E02F46DE
:102D00002D686868A04202D228680028F7D12748B9
:102D100085421FD0386800F1080828683860686864
:102D2000001B102810D92E196868001B70606C6099
:102D300071681C4800E00068026852688A42FAD351
:102D400002683260066000BF1A4968680968081A9C
:102D500018490860FEF7EAFD4046BDE8F08170B50D
:102D600006463546B6B1083D2C46FEF78BFE616837
:102D70000C4800E00068026852688A42FAD3026890
:102D8000226004600B4960680968084409490860CA
:102D9000FEF7CCFD70BD0748006870477047000023
:102DA00028020020BC000020F82B0100C4000020F5
:102DB000D0000020CC00002032490143324A11608B
:102DC000704770B5002100230F22C4781CB32E4C2D
:102DD000246804F4E064C4F5E064C4F30721C1F19D
:102DE0000404E3B20A4144789C40E1B28478144080
:102DF00021430C07210E254C05786155047804F019
:102E00001F050124AC4005786D11AD0005F1E025EA
:102E1000C5F8004109E0047804F01F050124AC4026
:102E20001B4D0678761145F8264070BD194A0A40B8
:102E30000243154B1B1F1A60704739B1124A121D0D
:102E400012680243104B1B1D1A6006E00E4A121D49
:102E5000126882430C4B1B1D1A607047042808D16E
:102E60004FF0E021096941F004014FF0E0221161C7
:102E700007E04FF0E021096921F004014FF0E02262
:102E8000116170470000FA050CED00E000E400E07D
:102E900080E100E080FFFF1F002041490860091D1C
:102EA0000860091D0860091D08603E483C4914314E
:102EB0000860704700213A498279002A3AD00A46D0
:102EC000126803689A430B461A600A1D1268036869
:102ED0009A430B1D1A60027911440A6803681A4369
:102EE0000A602F4A0832126803689A432C4B083351
:102EF0001A601A1D126803689A43294B0C331A6032
:102F00004279102A0ED11A1F126803681A43244B03
:102F100008331A601A1D126803681A43204B0C33D9
:102F20001A600DE01E49427911440A6803681A4389
:102F30000A6005E0027911440A6803689A430A604E
:102F400070470021016001710C21417100218171E4
:102F500070471349103109680143114A103211605A
:102F60007047014600200E4A143212680A400AB126
:102F7000012000E0002070470949143108607047C3
:102F800001460020064A143212680A400AB10120A4
:102F900000E00020704702491431086070470000CB
:102FA000003C0140FFFF7F0010B504469848844272
:102FB00008D10121084600F086FB0021012000F025
:102FC00082FB76E09348844208D10121022000F080
:102FD0007AFB0021022000F076FB6AE08E488442F2
:102FE00008D10121042000F06EFB0021042000F034
:102FF0006AFB5EE08948844208D10121082000F084
:1030000062FB0021082000F05EFB52E0844884420D
:1030100008D10121102000F056FB0021102000F003
:1030200052FB46E07F48844208D10121202000F075
:103030004AFB0021202000F046FB3AE07A48844217
:1030400008D10121402000F03EFB0021402000F08B
:103050003AFB2EE07548844208D10121802000F01F
:1030600032FB0021802000F02EFB22E070488442D9
:1030700008D10121801500F026FB0021A01500F0E9
:1030800022FB16E06B48844208D10121401500F074
:103090001AFB0021601500F016FB0AE06648844226
:1030A00007D10121001500F00EFB0021201500F0D2
:1030B0000AFB10BDF0B50A4600210023002400BF22
:1030C0003DE0012505FA01F3156805EA03049C4279
:1030D00034D105684F000326BE40B543056015791D
:1030E0004E00B5400668354305601579012D02D0C4
:1030F0001579022D16D185684F000326BE40B543D1
:10310000856055794E00B5408668354385604568D1
:1031100001268E40B5434560456896798E40B6B22B
:1031200035434560C5684F000326BE40B543C560C2
:10313000D5794E00B540C6683543C560491C102995
:10314000BFD3F0BD4FF6FF710160002101714171E5
:103150008171C171704708B54FF480320092009AB6
:103160000A430092009AC261C161009AC261C269B9
:103170000092C269009208BD0246002013690B400C
:103180000BB1012000E0002070470146086980B2C1
:1031900070470246002053690B400BB1012000E04C
:1031A000002070470146486980B27047018370472C
:1031B000418370470AB1018300E041837047416158
:1031C000704742694A4042617047F0B500230024CD
:1031D0004D07ED0E02FA05F3CE1000F1200555F86B
:1031E00026504E07F70E0F26BE40B543CF1000F114
:1031F000200646F82750CE1000F1200555F826503D
:1032000045EA0304CE1000F1200545F82640F0BD44
:10321000000002400004024000080240000C02408E
:10322000001002400014024000180240001C02403E
:10323000002002400024024000280240F9480068B3
:1032400040F00100F74908600020F64908310860A5
:10325000F4480068F4490840F2490860F348091D41
:103260000860F348EF4984310860F0481038091DC0
:103270000860EC48006820F48020EA4908600020DB
:10328000E8490C310860E7498C310860704700213B
:10329000E44A921C117011460870704710B501463F
:1032A0000022002300204A11012A02D1DD4C2368AC
:1032B00008E0022A03D1DB4C7034236802E0D94CC9
:1032C0007434236801F01F02012494401C400CB1A7
:1032D000012000E0002010BD38B50020009000243F
:1032E000002500BF3120FFF7D9FF05460098401C9C
:1032F00000900098B0F5A04F01D0002DF2D0312001
:10330000FFF7CCFF08B1012400E00024204638BDBF
:1033100001460020C34A106820F0F80040EAC100CE
:1033200010607047C349086070470021BD4A703281
:1033300011701170012802D004280AD104E0012183
:10334000B84A7032117005E00521B64A703211702A
:1033500000E000BF00BF7047B7490860704770B514
:10336000049C41EA82150126C6EB530645EA064550
:10337000054345EA0465AB4E361D356070BDAD4969
:1033800008667047820142EA0172A64B84331A60D4
:103390007047A8498866704710B5830143EA016306
:1033A00043EA02739F4C8834236010BDA14908672B
:1033B0007047A049C864704702460020994B083303
:1033C000186820F0EC6042EA01031843954B08337B
:1033D0001860704702460020924B0833186820F0AE
:1033E000784042EA010318438E4B08331860704757
:1033F000014600208B4A0832106820F00300084381
:103400001060704787480830006800F00C00704773
:1034100001460020834A0832106820F0F00008437B
:1034200010607047014600207E4A0832106820F480
:10343000E05008431060704701460020794A083286
:10344000106820F4604040EAC10010607047F0B599
:10345000002100220024022500260223714F083794
:103460003F6807F00C0121B1042905D0082937D1A4
:1034700005E0724F076036E0714F076033E0694F37
:103480003F1D3F68C7F38056664F3F1D3F6807F0FA
:103490003F036EB16A4FB7FBF3F7DFF888C10CF159
:1034A000040CDCF800C0CCF3881C07FB0CF40CE027
:1034B000624FB7FBF3F7DFF86CC10CF1040CDCF8DA
:1034C00000C0CCF3881C07FB0CF4564F3F1D3F682F
:1034D000C7F301477F1C7D00B4FBF5F7076002E0EE
:1034E000564F076000BF00BF4E4F08373F6807F0D8
:1034F000F0010909534F7A5C0768D7404760494F8C
:1035000008373F6807F4E051890A4E4F7A5C4768F4
:10351000D7408760434F08373F6807F46041490B45
:10352000484F7A5C4768D740C760F0BD002100F47F
:103530004072B2F5407F0AD13A4A0832116821F44C
:10354000F811414A02401143364A08321160354AA7
:1035500070321268C0F30B031A43324B70331A6097
:10356000704735494439086070473349403908602D
:10357000704736490860704701460020294A8C325E
:10358000106820F01F004A1E1043264A8C3210603B
:10359000704701460020234A8C32106820F4F8500E
:1035A0004A1E40EA02201F4A8C32106070470146D2
:1035B00000201C4A8C32106820F440100843106030
:1035C000704701460020174A8C32106820F44000F2
:1035D00008431060704701460020124A8C32106880
:1035E00020F4403008431060704719490860704764
:1035F00039B10C4A3032126802430A4B30331A6038
:1036000006E0084A303212688243064B30331A60B3
:103610007047F9B1034A343212680243014B343324
:103620001A601CE000380240FFFFF6EA1030002468
:103630000030002000004742800E47420024F40082
:1036400000127A00D4000020FFFCFF0F5C0147420B
:10365000E0114742854A12688243844B1A607047E2
:1036600039B1824A121D12680243804B1B1D1A6039
:1036700006E07E4A121D126882437C4B1B1D1A60B5
:10368000704739B1794A0C3212680243774B0C33D8
:103690001A6006E0754A0C3212688243734B0C3391
:1036A0001A60704739B1714A1032126802436F4B89
:1036B00010331A6006E06D4A1032126882436B4B79
:1036C00010331A60704739B1684A243A12680243CD
:1036D000664B243B1A6006E0644A243A126882432F
:1036E000624B243B1A60704739B1604A203A126835
:1036F00002435E4B203B1A6006E05C4A203A1268A7
:1037000082435A4B203B1A60704739B1574A1C3AE2
:1037100012680243554B1C3B1A6006E0534A1C3AA0
:1037200012688243514B1C3B1A60704739B14F4AB3
:10373000143A126802434D4B143B1A6006E04B4AA0
:10374000143A12688243494B143B1A60704739B1EE
:10375000464A103A12680243444B103B1A6006E096
:10376000424A103A12688243404B103B1A6070473D
:1037700039B13E4A1C32126802433C4B1C331A607A
:1037800006E03A4A1C3212688243384B1C331A60F6
:10379000704739B1354A203212680243334B203327
:1037A0001A6006E0314A2032126882432F4B2033E0
:1037B0001A60704739B12D4A2432126802432B4BEC
:1037C00024331A6006E0294A243212688243274BC8
:1037D00024331A60704739B1244A2C3212680243EC
:1037E000224B2C331A6006E0204A2C3212688243A6
:1037F0001E4B2C331A60704739B11C4A30321268A4
:1038000002431A4B30331A6006E0184A303212680D
:103810008243164B30331A60704739B1134A273A46
:1038200012780243114B273B1A7006E00F4A273AE1
:10383000127882430D4B273B1A7070470B4840307B
:10384000006840F0807009494031086070470146C7
:103850000020064A283A12680A400AB1012000E016
:1038600000207047014926390870704734380240FB
:1038700010B501218803FFF76AFF00214FF4804053
:10388000FFF765FF10BD1C49086070471B490862BF
:10389000704730B500228B071C0F0F2303FA04F288
:1038A000154B08338C1053F824309343124C0834D2
:1038B0008D1044F8253023468C1053F824308C07A3
:1038C000240F00FA04F423430B4C08348D1044F801
:1038D000253030BD0949DC3108607047084908606F
:1038E0007047002004492031096801F4807109B152
:1038F000012000E00020704700380140000027420E
:103900000004274210B50446FE48844208D1012134
:103910000846FFF71CFF00210120FFF718FF9DE07C
:10392000B4F1804F08D101210846FFF7FFFE0021C6
:103930000120FFF7FBFE91E0F348844208D101210A
:103940000220FFF7F3FE00210220FFF7EFFE85E0E3
:10395000EE48844208D101210420FFF7E7FE002150
:103960000420FFF7E3FE79E0E948844208D1012111
:103970000820FFF7DBFE00210820FFF7D7FE6DE0EF
:10398000E448844208D101211020FFF7CFFE002136
:103990001020FFF7CBFE61E0DF48844208D101210F
:1039A0002020FFF7C3FE00212020FFF7BFFE55E0D7
:1039B000DA48844208D101210220FFF7C8FE002125
:1039C0000220FFF7C4FE49E0D548844209D1012115
:1039D0000804FFF7BCFE00214FF48030FFF7B7FE6C
:1039E0003CE0D048844209D101214804FFF7AFFEF2
:1039F00000214FF40030FFF7AAFE2FE0CA488442AE
:103A000009D101218804FFF7A2FE00214FF4802094
:103A1000FFF79DFE22E0C548844208D101214020E5
:103A2000FFF784FE00214020FFF780FE16E0C0482B
:103A3000844208D101218020FFF778FE00218020F8
:103A4000FFF774FE0AE0BB48844207D101218015CC
:103A5000FFF76CFE0021A015FFF768FE10BD0022E5
:103A60000288A84B98420ED0AC4B98420BD0B0F1D4
:103A7000804F08D0A44B984205D0A44B984202D066
:103A8000A34B984204D14FF68F731A404B881A43C8
:103A9000A04B984207D0A04B984204D04FF6FF436A
:103AA0001A400B891A4302804B68C3620B88038556
:103AB000944B984202D0994B984201D18B7A03865D
:103AC0000123838270474FF0FF3141600021018064
:103AD00001814180817270470185828270470A4668
:103AE000002101884FF68F73194011430180704700
:103AF00041627047C16270470146486A704701469B
:103B0000088D704721B1028842F00202028004E071
:103B100002884FF6FD731A400280704721B1028877
:103B200042F00402028004E002884FF6FB731A4060
:103B30000280704721B1028842F08002028004E0D6
:103B400002884FF67F731A400280704702884FF652
:103B5000F7731A40028002880A4302807047028885
:103B60004FF6FF431A40028002880A4302807047E2
:103B700021B1028842F00102028004E002884FF67F
:103B8000FE731A400280704770B5002400220023A3
:103B9000058C4FF6FE7635400584028C8388048BB5
:103BA0004FF68F752C40B51E2C400D882C43751E8A
:103BB0002A408D892A434D882A43524DA84202D07B
:103BC000564DA84213D14FF6F7752A40CD892A43A6
:103BD0004FF6FB752A408D882A434FF6FF652B4030
:103BE0004FF6FF552B400D8A2B434D8A2B43838084
:103BF00004838D684563028470BD70B50024002283
:103C00000023058C4FF6EF7635400584028C8388BF
:103C1000048B48F6FF752C404FF6FF452C400D886D
:103C20004FF6FF7606EA05252C434FF6DF752A404E
:103C30008D8906EA05152A434D8806EA05152A43AB
:103C4000304DA84202D0354DA8421DD14FF67F75A8
:103C50002A40CD894FF6FF7606EA05152A434FF62E
:103C6000BF752A408D8806EA05152A434FF6FF35B1
:103C70002B404FF2FF752B400D8A06EA85052B433A
:103C80004D8A06EA85052B43838004838D6885630E
:103C9000028470BD70B5002400220023058C4FF60D
:103CA000FF6635400584028C8388848B4FF68F75C0
:103CB0002C404FF6FC752C400D882C434FF6FF55D9
:103CC0002A408D894FF6FF7606EA05252A434D885E
:103CD00006EA05252A430B4DA84202D00F4DA84203
:103CE00038D14FF2FF752A40CD894FF6FF7606EAAC
:103CF00005252A434FF6FF352A408D8806EA05251B
:103D00002A4319E000000140000400400008004080
:103D1000000C00400010004000140040000401406E
:103D200000400140004401400048014000180040AC
:103D3000001C0040002000404EF6FF752B404DF661
:103D4000FF752B400D8A06EA05152B434D8A06EABE
:103D500005152B43838084838D68C563028470BD01
:103D600070B5002200230024058C4EF6FF76354006
:103D70000584038C8488828B48F6FF752A404FF6B1
:103D8000FF452A400D884FF6FF7606EA05252A43AF
:103D90004DF6FF752B408D8906EA05352B434D887E
:103DA00006EA05352B43FE4DA84202D0FD4DA84240
:103DB00008D14BF6FF752C400D8A4FF6FF7606EAC8
:103DC00085152C43848082838D680564038470BDCF
:103DD000002101804180818081608181C1810182D7
:103DE0004182704770B50346002000241846183001
:103DF00001258D40ACB21D8CA5431D8409B1082955
:103E00000AD100EB610005684FF68F7635400560FA
:103E10000568154305600FE00D1FC5F34E052844E6
:103E2000056848F6FF763540056005684FF6FF7671
:103E300006EA02263543056070BD41637047816321
:103E40007047C1637047016470470A460021018BC7
:103E50004FF68F7319401143018370470A460021C2
:103E6000018B48F6FF7319404FF6FF7303EA0223F4
:103E70001943018370470A460021818B4FF68F73E7
:103E800019401143818370470A460021818B48F60F
:103E9000FF7319404FF6FF7303EA0223194381832E
:103EA00070470A460021018B4FF6F7731940114302
:103EB000018370470A460021018B4FF2FF731940BE
:103EC0004FF6FF7303EA02231943018370470A4642
:103ED0000021818B4FF6F77319401143818370479E
:103EE0000A460021818B4FF2FF7319404FF6FF7392
:103EF00003EA02231943818370470A460021018B9C
:103F00004FF6FB7319401143018370470A460021A5
:103F1000018B4FF6FF3319404FF6FF7303EA02237C
:103F20001943018370470A460021818B4FF6FB73CA
:103F300019401143818370470A460021818B4FF657
:103F4000FF3319404FF6FF7303EA022319438183BD
:103F500070470A460021018B4FF67F7319401143C9
:103F6000018370470A460021018BC1F30E014FF611
:103F7000FF7303EA02231943018370470A460021B5
:103F8000818B4FF67F7319401143818370470A4636
:103F90000021818BC1F30E014FF6FF7303EA022368
:103FA0001943818370470A460021018C4FF6FD7347
:103FB00019401143018470470A460021018C4FF6D5
:103FC000F77319401143018470470A460021018CA0
:103FD0004FF6DF7319404FF6FF7303EA02131943DC
:103FE000018470470A460021018C4FF67F73194007
:103FF0004FF6FF7303EA02131943018470470A4620
:104000000021018C4FF6FF5319404FF6FF7303EA6E
:1040100002231943018470470A460021018C4FF2A4
:10402000FF7319404FF6FF7303EA0223194301841B
:1040300070470A460021018C4DF6FF7319404FF678
:10404000FF7303EA023319430184704730B500233C
:1040500001248C40A3B2048C9C430484048C02FA97
:1040600001F5ADB22C43048430BD30B500230424E7
:104070008C40A3B2048C9C430484048C02FA01F5A6
:10408000ADB22C43048430BD828B4FF2FF331A4013
:104090008283828B4FF6FF7303EA01231A438283E4
:1040A0007047F0B50C461546002100220026078C0B
:1040B0004EF6FF7C07EA0C070784818B028C4FF6D3
:1040C000FF7707EA043640F6FF4739404FF6FF779F
:1040D00007EA052739434FF6FF7707EA03373943E5
:1040E00045F6FF773A4046F480573A43818302848D
:1040F000F0BD828B4FF6F3731A408283828B0A43A2
:1041000082837047F0B50C46154600210022002638
:10411000078C4FF6FF6C07EA0C070784818B028C33
:104120004FF6FF7707EA04264FF60C7739404FF633
:10413000FF7707EA03172F4339434FF2FF573A40FF
:1041400046F480773A4381830284F0BD028B4FF2BC
:10415000FF331A400283028B4FF6FF7303EA0123F9
:104160001A4302837047F0B50C4615460021002221
:104170000026078C4FF6EF7C07EA0C070784018BBB
:10418000028C4FF6FF7707EA041640F6FF473940E6
:104190004FF6FF7707EA033739434FF6FF7703E01F
:1041A000000001400004014007EA052739434FF6AB
:1041B0005F773A4046F010073A4301830284F0BD2E
:1041C000028B4FF6F3731A400283028B0A43028379
:1041D0007047F0B50C46154600210022068C4FF6BC
:1041E000FE773E400684018B028C4FF60C76314000
:1041F0007E1C06EA03162E4331434FF6F576324015
:1042000044F00106324301830284F0BD70B50546D7
:104210000C46208850B92389A28861882846FFF778
:10422000D8FFE1882846FFF7CBFF25E02088042847
:104230000AD12389A28861882846FFF794FFE18884
:104240002846FFF783FF17E0208808280AD1238932
:10425000A28861882846FFF755FFE1882846FFF7C6
:1042600048FF09E02389A28861882846FFF719FFE3
:10427000E1882846FFF708FF70BD002101804180DA
:10428000012181800021C180018170472DE9F04129
:1042900005460C4600260127608808B9022600E082
:1042A0000026A088012801D1022700E001272088EC
:1042B000A0B92389A28861882846FFF78AFFE18890
:1042C0002846FFF77DFF23893A4631462846FFF707
:1042D0004AFFE1882846FFF739FF13E02389A288C7
:1042E00061882846FFF73FFFE1882846FFF72EFF49
:1042F00023893A4631462846FFF76BFFE188284676
:10430000FFF75EFFBDE8F0810146486B704701464C
:10431000886B70470146C86B70470146086C704750
:104320000A884B881A438B881A43CB881A430B8917
:104330001A434B891A438B891A43A0F844207047CB
:104340000021018041808180C18001814181818182
:10435000704731B1B0F8442042F40042A0F8442044
:1043600005E0B0F84420C2F30E02A0F844207047E4
:1043700021B1828842F00402828004E082884FF6F4
:10438000FB731A408280704721B1828842F001029B
:10439000828004E082884FF6FE731A408280704764
:1043A0001AB183890B43838102E083898B43838124
:1043B00070478182704702460020138A0B400BB180
:1043C000012000E000207047CA430282704730B5E8
:1043D0000246002000230024158A05EA010395897E
:1043E00005EA010413B10CB1012000E0002030BD4A
:1043F000CA430282704741EA0203A0F8483070477E
:104400001AB183890B43838102E083898B438381C3
:10441000704721B1828842F00802828004E08288DD
:104420004FF6F7731A408280704701894FF6F87291
:104430001140018170470A46002101894FF68F73B0
:10444000194011430181704730B504460D46294695
:104450002046FFF7F0FF208940F00700208130BDA3
:104460002DE9F04104460D4616461F46602D06D143
:104470003B46012231462046FFF775FE05E03B46EC
:10448000012231462046FFF7A4FE29462046FFF7C9
:10449000D2FF208940F007002081BDE8F08130B5CF
:1044A0000C4600210189C9B24FF6FF7505EA0325C4
:1044B000154325432943018130BD2DE9F0410546CF
:1044C0000E4617469846002443463A46314628464B
:1044D000FFF7E5FF2C894FF6F870044044F007041D
:1044E0004FF68F70044044F070042C81BDE8F081D9
:1044F000F0B504460D4616461F463B463246294651
:104500002046FFF7CCFF208940F480402081F0BD99
:1045100082884FF68F731A40828082880A43828095
:10452000704702894FF6F8731A40028102890A43E4
:104530000281704702894FF67F731A400281028917
:104540000A4302817047F0B50C4615461E4600210D
:10455000002200230189028B038C4FF6F877394043
:1045600021434FF6FC473A4040F201173A434FF6D9
:10457000DD773B404FF6FF7707EA06172F433B43B3
:10458000018102830384F0BD21B1828842F0800260
:10459000828004E082884FF67F731A4082807047E1
:1045A000A0F850107047000010B50446FA48844245
:1045B00008D101211020FFF7CAF800211020FFF7D1
:1045C000C6F857E0F548844209D101214804FFF7B5
:1045D000ADF800214FF40030FFF7A8F84AE0F048AA
:1045E000844209D101218804FFF7A0F800214FF48B
:1045F0008020FFF79BF83DE0EA48844209D1012181
:10460000C804FFF793F800214FF40020FFF78EF85D
:1046100030E0E548844209D101210805FFF786F81A
:1046200000214FF48010FFF781F823E0DF48844237
:1046300008D101212020FFF78AF800212020FFF770
:1046400086F817E0DA48844209D101218807FFF78C
:104650006DF800214FF08040FFF768F80AE0D54878
:10466000844207D101214005FFF760F80021600571
:10467000FFF75CF810BD2DE9FF4705460E46002404
:10468000A14600BFA046B08900B100BF2C8A24F427
:104690004054F08804432C82AC8941F20C6084437E
:1046A000B08831890843718908430443AC81AC8ADE
:1046B00024F44074B0890443AC826846FEF7C7FE18
:1046C000B548854202D0B948854202D1DDF80C9048
:1046D00001E0DDF80890A88900F4004040B109EB42
:1046E000C90000EB091031684900B0FBF1F707E0A1
:1046F00009EBC90000EB091031688900B0FBF1F744
:104700006420B7FBF0F004012009642101FB10785C
:10471000A88900F4004040B1322000EBC800B0FB93
:10472000F1F000F00700044308E0322000EB08102D
:104730006421B0FBF1F000F00F0004432C81BDE8D0
:10474000FF874FF41651016000218180C1800181F3
:104750000C21418100218181704710B50246002063
:10476000108A20F470600B884C8823438C88234384
:10477000CC8823431843108210BD00210180418062
:104780008180C180704721B1828942F400528281C8
:1047900004E082894DF6FF731A4082817047028BD4
:1047A00002F47F420283028B0A430283704721B1E5
:1047B000828942F40042828103E08289C2F30E02C0
:1047C0008281704721B1828A42F40062828204E0D1
:1047D000828A4FF2FF731A4082827047C1F3080247
:1047E0008280704701468888C0F308007047028ABB
:1047F0004FF6F0731A400282028A0A43028270471F
:1048000021B1828942F00202828104E082894FF65E
:10481000FD731A408281704782894FF2FF731A40FC
:10482000828182890A4382817047028A4FF6DF7350
:104830001A400282028A0A430282704721B1028A28
:1048400042F48042028204E0028A4BF6FF731A406F
:1048500002827047818941F001018181704721B155
:10486000828A42F00802828204E0828A4FF6F7735D
:104870001A4082827047028BD2B20283028B42EAD4
:1048800001220283704721B1828A42F02002828293
:1048900004E0828A4FF6DF731A408282704721B1AA
:1048A000828A42F01002828204E0828A4FF6EF731D
:1048B0001A4082827047828A4FF6FB731A408282C6
:1048C000828A0A438282704721B1828A42F00202C0
:1048D000828204E0828A4FF6FD731A40828270471A
:1048E0001AB1838A0B43838202E0838A8B438382DB
:1048F0007047F0B50346002400260025002040F64E
:104900006A17B94200D100BF1846C1F3421401F042
:104910001F06012707FA06F5012C01D10C3004E02F
:10492000022C01D1103000E014301AB107682F4377
:10493000076002E00768AF430760F0BD0246002051
:10494000B1F5007F00D100BF13880B400BB10120EF
:1049500000E00020704701F40072B2F5007F00D142
:1049600000BFCA430280704770B50246002400238E
:104970000025002040F66A16B14200D100BFC1F305
:10498000421501F01F03012606FA03F3012D13D18E
:104990009689334017E000000010014000440040B9
:1049A00000480040004C004000500040001401400E
:1049B00000780040007C0040022D02D1168A33406E
:1049C00001E0968A33400C12012606FA04F4168898
:1049D000344013B10CB1012000E0002070BD10B5CF
:1049E0000022002340F66A14A14200D100BF0A123F
:1049F00001249440A3B2DC43048010BD032A40F29A
:104A0000308010F0030C00F0158011F8013BBCF170
:104A1000020F624498BF11F801CB00F8013B38BF88
:104A200011F8013BA2F1040298BF00F801CB38BF96
:104A300000F8013B11F0030300F03080083AC0F0A9
:104A4000088051F8043B083A51F804CBA0E808105C
:104A5000F5E7121D5CBF51F8043B40F8043BAFF38F
:104A60000080D20724BF11F8013B11F801CB48BFE9
:104A700011F8012B24BF00F8013B00F801CB48BF1F
:104A800000F8012B704702F0FF0343EA032242EAD9
:104A9000024200F037B870477047704710B5203AAF
:104AA000C0F00B80B1E81850203AA0E81850B1E8E7
:104AB0001850A0E81850BFF4F5AF5FEA027C24BF9D
:104AC000B1E81850A0E8185044BF18C918C0BDE894
:104AD00010405FEA827C24BF51F8043B40F8043B5D
:104AE00008BF7047D20728BF31F8023B48BF11F812
:104AF000012B28BF20F8023B48BF00F8012B70476C
:104B00004FF000020429C0F0128010F0030C00F0F6
:104B10001B80CCF1040CBCF1020F18BF00F8012B74
:104B2000A8BF20F8022BA1EB0C0100F00DB85FEA42
:104B3000C17C24BF00F8012B00F8012B48BF00F80E
:104B4000012B70474FF0000200B51346944696467D
:104B5000203922BFA0E80C50A0E80C50B1F1200190
:104B6000BFF4F7AF090728BFA0E80C5048BF0CC03E
:104B70005DF804EB890028BF40F8042B08BF70479C
:104B800048BF20F8022B11F0804F18BF00F8012B0E
:104B90007047754600F02CF8AE460500694653464E
:104BA00020F00700854618B020B5FBF7AFFBBDE845
:104BB00020404FF000064FF000074FF000084FF084
:104BC000000B21F00701AC46ACE8C009ACE8C00915
:104BD000ACE8C009ACE8C0098D46704710B5044682
:104BE000AFF300802046BDE81040FBF716BB000085
:104BF00000487047202E012001491820ABBEFEE777
:104C00002600020070474FF04070E1EE100A704736
:104C10000010008000400020080000000800000094
:104C20000800000008000000010000000100000072
:104C30000100000006000000000004000400000065
:104C400004000000000400080A000B000700070031
:104C5000704C000800000020E4000000C4010008BF
:104C6000544D0008E40000209C330100E0010008DE
:104C7000007A030A000000000000000001020304A3
:104C80000607080900000000020000000100000003
:104C90000000000000000000000000000000000014
:104CA0000000000000000000000000000000000004
:104CB00000000000000C0240000C0240000C02400A
:104CC000000C0240000002400000000000480040CC
:104CD0000008024000080240000000000000000040
:104CE00000000000000000000000000000000000C4
:104CF00000000000000000000000000000000000B4
:104D00000000000000000000FFFFFFFF00000000A7
:104D10000000000000000000000000000000000093
:104D2000AAAAAAAA000000000000000000000000DB
:104D3000000000000000000000000000F82B01004F
:104D4000000000000000000001020304010203044F
:044D50000607080941
:040000050800018965
:00000001FF
